:04000000C7EF04F052
:1000080000C015F0E1CF16F0E2CF17F09EA023D084
:10001800374A382A800E3818006E800E010A005CB4
:1000280002E1F40E375C12E331C01FF032C020F059
:100038001F361F9020361F361F902036376A386AC1
:10004800010E1D6E000E1E6E316A326A9E90DB0E26
:10005800CE6E0B0ECF6EF2A21FD0000E361802E144
:10006800010E351810E181B00ED0650EE16E000E5C
:10007800E26E3B50E126D8B0E22AD6CFE6FF3B2A13
:10008800356A366AF18C81A006D0010E356E000EF5
:10009800366EF19CD66AF29215C000F016C0E1FFE8
:0600A80017C0E2FF110089
:1000AE000B840BAE62EF00F0010E036E026A016A62
:0A00BE00006A0A360232FF0E12003B
:0E00C800026A016A006A086A036A000E1200EA
:0800D6000AAE029E000E1200AA
:1000DE00086A096A100E0C6E01340836093604508F
:1000EE00085E0550D8A0053C095ED8B007D0045074
:1000FE0008260550D8B0053C0926D89000360136A2
:06010E000C2EEAD71200DE
:100114000001AC6B050EAC5D0AE2AC51AA25E16EA0
:10012400000EAB21E26E200EE66EAC2BF3D7AC5181
:10013400AA25E16E000EAB21E26EE66AAC07AC5173
:10014400AA25AD6F000EAB21AE6F0A0E046E000E31
:10015400056EA8C000F0A9C001F0BFDF08C000F020
:1001640009C001F0300E0026ADC0E1FFAEC0E2FFD1
:1001740000C0E6FF0A0E046E000E056EA8C000F073
:10018400A9C001F0AADF00C0A8F001C0A9F0000EC8
:10019400011802E1000E001801E102D0AC07CFD72C
:0201A400120047
:1001A6000B820BAEDDEF00F00368026801680068A1
:0801B6000A360232FF0E1200AE
:1001BE000B800BAEEBEF00F0026A0AAEFF0E026E82
:0C01CE00016E006E0A360232FF0E1200B5
:1001DA000C6A0E6A0250D8A406EF01F001C002F0C0
:1001EA0000C001F0006A0E860250D8A406EF01F0A2
:1001FA0001C002F0016A0E960E880250D8B418EFB8
:10020A0001F00E50035ED8A4D8A01DEF01F0D890DB
:10021A0002BE22EF01F0003601360236032E0DEF40
:10022A0001F01DEF01F0010E0C6E49DF25EF01F020
:10023A00020E0C6E37DF25EF01F0040E0C6E46DF5E
:02024A001200A0
:0A024C001D0E0D6E0D2EFED71200E0
:100256000134083609360450085E0550D8A0053C1E
:10026600095E003601360F0E0C6E0134083609366B
:10027600045000A006D0085E0550D8A0053C095ED3
:1002860005D008260550D8B0053C092600360136AB
:100296000C2EEBD700B006D0045008260550D8B077
:0802A600053C092600001200CE
:0E02AE00ACB202D00000FCD7A8C0ADFF120019
:1002BC000B6A0350D8B4A4EF01F002500A6E028E00
:1002CC008E0E035E03AEA8EF01F0036C080E035C08
:1002DC00D8A083EF01F0036E013602C001F0026A70
:1002EC00080E035CD8A083EF01F0036E0136016A9F
:1002FC000350D8A4D8908DEF01F00350D8B48DEFF3
:10030C0001F0D89002320132032E87EF01F00BBCC2
:10031C0001A09AEF01F0D8A09AEF01F0012AD8B40D
:10032C00022A02BEB7EF01F00AAEBCEF01F0021ECA
:10033C00011E012AD8B4022ABCEF01F0026A016A3C
:10034C00BCEF01F00B800BAEC0EF01F0026A0AAEFD
:10035C00C0EF01F0FF0E026E016E0A360232C0EFE2
:10036C0001F0010E0C6E25DFC2EF01F0000E0C6ED9
:10037C00C2EF01F0FF0E0C6E0150006E0250016EC8
:02038C0012005D
:0A038E00000E9EBA010E006E120070
:100398000900F5CFE6FF0006FBE10106F9E11200CE
:1003A800AE0E5B6E020E5C6EA80E5D6E000E5E6E8B
:1003B800FE0E536E030E546E000E556E000E566EF2
:1003C8008E0E4F6E030E506E000E516E000E526E62
:1003D800FF0E576EFF0E586E000E596E000E5A6EC5
:1003E800AC8A900EAB6E948E949C9EAA03D0AECF2E
:0603F80000F0FBD712002B
:1003FE00AECF01F0ABA202D0AB98AB8801C000F03B
:02040E001200DA
:10041000C26A070EC012C08E9EC000F00036009067
:10042000003600900050C212C28010DFC282C2A209
:1004300001D0FDD7C4CF01F0006AC3500012000EF6
:060440000112C29012003F
:10044600819093901A0E0C6EF80E0D6E0D2EFED73F
:100456000C2EFCD7000093808180F19CF28812005C
:100466000050086E0150006E016A026A036A0B6A48
:100476000C6A960E036E0A6A00C001F008C000F00E
:08048600086A026AA7DE1200F9
:10048E000001A46BA56B9EC0A6F09FC0A7F0800EC6
:10049E009F19006E800E005C02E1000E9E5D0BE265
:1004AE00010EA46F000EA56F9E510008A66F9FC08F
:1004BE00A7F0000EA757A6C0A8F0A7C0A9F0A0C02D
:1004CE00AAF0A1C0ABF01FDE060EA26F000EA36F46
:1004DE00000E006EA351005C02E1A251000819E269
:1004EE00A251A025E16EA351A121E26E010EA25DE3
:1004FE00006E000EA359016E0050A025E96E01504A
:10050E00A121EA6EEECFE6FF010EA25F000EA35B05
:10051E00DFD7A0C0E1FFA1C0E2FF200EE66EA4511E
:10052E00A5111AE0A26BA36BA251A025E96EA351EF
:10053E00A121EA6EEE50200A03E1A24BA32BF4D7C1
:10054E00010EA25F000EA35BA251A025E16EA35186
:0A055E00A121E26E2D0EE66E1200E0
:1005680000019E6B9F6BA06BA16B036A046A800EEF
:100578000418006E800E005C02E1100E035C70E24D
:10058800020E0324006E000E0420016E650E002486
:10059800E96E000E0120EA6EEE503C0829E2020ED8
:1005A8000324006E000E0420016E650E0024E96E1F
:1005B800000E0120EA6E500EEE5C1AE203500F089E
:1005C800006E04C001F0000E015600C002F0010EDA
:1005D800006E000E016E025005E0003600900136F4
:1005E800FF0FFAD7000100509E1301509F1335D01A
:1005F800020E0324006E000E0420016E650E002416
:10060800E96E000E0120EA6EEE50000826E2020EA6
:100618000324006E000E0420016E650E0024E96EAE
:10062800000E0120EA6E280EEE5C17E203500F0858
:10063800006E04C001F0000E015600C002F0006A0E
:10064800016A025005E0003600900136FF0FFAD724
:10065800000100509E1301509F13034A042A87D7B4
:10066800036A046A800E0418006E800E005C02E1C2
:10067800100E035C70E2120E0324006E000E0420BC
:10068800016E650E0024E96E000E0120EA6EEE5040
:100698003C0829E2120E0324006E000E0420016EAD
:1006A800650E0024E96E000E0120EA6E500EEE5C25
:1006B8001AE203500F08006E04C001F0000E015644
:1006C80000C002F0010E006E000E016E025005E03F
:1006D800003600900136FF0FFAD700010050A01332
:1006E8000150A11335D0120E0324006E000E042011
:1006F800016E650E0024E96E000E0120EA6EEE50D0
:10070800000826E2120E0324006E000E0420016E7B
:10071800650E0024E96E000E0120EA6E280EEE5CDC
:1007280017E203500F08006E04C001F0000E0156D6
:1007380000C002F0006A016A025005E0003600902D
:100748000136FF0FFAD700010050A0130150A11382
:10075800034A042A87D7A0C061F0A1C062F09EC0F6
:0807680063F09FC064F0120071
:100770000001A16B9EC0E9FF9FC0EAFFEECFA0F091
:10078000A051000A0EE0A0C0A8F091DD0001A12B4D
:10079000A1519E25E96E000E9F21EA6EEECFA0F0DA
:0407A000EFD712007D
:1007A4000450000A08E10550000A05E1FF0E006E3E
:1007B4007F0E016E57D00D6A096A086A0150001055
:1007C400D8B4000C015005180A6E0ABE0D1E0B6A3F
:1007D40005AE05D0041E051E042AD8B4052A01AEB0
:1007E40005D0001E011E002AD8B4012A01500510AC
:1007F4000A6E0ABE10D02DDD0BB020D00DAE000C59
:10080400001E011E002AD8B4012A081E091E082A47
:10081400D8B4092A000C05AE0DD001BE07D0015092
:10082400096E0050086E016A006AE8D7016A006A1E
:10083400002A000C011E001E0B2ADDD7082AD8B49A
:10084400092A0450085CD8A4D9D70550095CD8A457
:10085400D5D7096A086A002AD8B4012A01AECED7CE
:060864000000FF0C120071
:10086A00086A096A000E07620364BAEF04F00250CC
:10087A0006180A6E075003267E0ED8A04BEF04F026
:10088A00035ED8B0BFEF04F04FEF04F0035ED8A0C8
:10089A00C3EF04F0028E068E02C00EF001C00BF008
:1008AA0000C00DF000500402F4CF0CF00150050214
:1008BA00F4CF00F0F3CF08F00402F3500C26F45002
:1008CA000822000E00220D500502F3500C26F450A7
:1008DA000822000E002202500402F3500826F450A7
:1008EA00002202500502016A000E0122F35000267E
:1008FA00F45001220D500602F3500826F45000224B
:10090A00026A000E012202220B500602F350002650
:10091A00F4500122000E02220E500602F350012664
:10092A00F450022202BEA2EF04F008360036013665
:10093A0002360306D8B4C3EF04F0B5EF04F0D8804A
:10094A00800E08640030000E002201220222D8A084
:10095A00B5EF04F0023201320032034ABFEF04F06D
:10096A000AAE029E000EC6EF04F0010E64EC00F01F
:10097A00C6EF04F0020E12DCC6EF04F0040E57ECC8
:04098A0000F0120067
:10098E0071EC06F0C00EF26EC10ED56E9380F19C26
:10099E00670EAF6EAC8401DD950ECD6E9D809F808F
:1009AE00DB0ECE6E0B0ECF6E00019E6B2ADD00C0ED
:1009BE002FF001C030F0800E020A026E800E011878
:1009CE00025C02E1005026080CE2000E2E1802E135
:1009DE00000E2D1806E1314A322A010E2D6E000E40
:1009EE002E6E800E3018006E800E010A005C02E141
:1009FE00C20E2F5C08E2000E2E1802E1010E2D1819
:100A0E0002E12D6A2E6A010E00019E6FFADC0E0EB7
:100A1E00005E010E015A20DD930E046E3A0E056E35
:100A2E00310E066E7F0E076E19DF41DC00C04DF0F1
:100A3E0001C04EF000C09EF001C09FF08D0E00016F
:100A4E00A06F000EA16F1CDD800E006E800E4E1882
:100A5E00005C02E14D5096080AE3800E4E18006EBF
:100A6E00800E005C02E11E0E4D5C01E310D0000E04
:100A7E00341802E1000E33180AE10001180E9E6FC1
:100A8E00000E9F6F6EDE010E336E000E346E800E02
:100A9E004E18006E800E005C02E16E0E4D5C0BE295
:100AAE00800E006E800E4E18005C02E14D5046081E
:100ABE0002E2336A346A64DC005206E099DC00C05C
:100ACE004CF00050310A00E1000E1E1802E1010E3A
:100ADE001D181BE1210E00019E6F000E9F6F41DE5F
:100AEE001FC09EF020C09FF0910EA06F000EA16F50
:100AFE00C7DC910E9E6F000E9F6F33DE0D0EA86F3A
:100B0E0057EC01F01D6A1E6A97DC800E006E800E97
:100B1E003A18005C02E139503B5CD8A0BFD0F29885
:100B2E003B6A1BDD3C0E00019E6F000E9F6F19DEAF
:100B3E00640E046E000E056E61C000F062C001F01E
:100B4E002ADE00C098F001C099F0640E046E000E0B
:100B5E00056E61C000F062C001F01DDE08C000F03D
:100B6E0009C001F000C05FF001C060F00A0E046E13
:100B7E00000E056E5FC000F060C001F00CDE00C01C
:100B8E009AF001C09BF00A0E046E000E056E5FC057
:100B9E0000F060C001F0FFDD08C000F009C001F0F8
:100BAE0000C09CF001C09DF0300E00019825A86F8A
:100BBE0057EC01F0300E00019A25A86F57EC01F0AA
:100BCE002E0E0001A86F57EC01F0300E00019C258F
:100BDE00A86F57EC01F00D0E0001A86F57EC01F055
:100BEE00420E00019E6F000E9F6FBBDD640E046E01
:100BFE00000E056E63C000F064C001F0CCDD00C0D5
:100C0E0098F001C099F0640E046E000E056E63C07C
:100C1E0000F064C001F0BFDD08C000F009C001F0B3
:100C2E0000C05FF001C060F00A0E046E000E056E8B
:100C3E005FC000F060C001F0AEDD00C09AF001C0F0
:100C4E009BF00A0E046E000E056E5FC000F060C0D1
:100C5E0001F0A1DD08C000F009C001F000C09CF059
:100C6E0001C09DF0300E00019825A86F57EC01F0E1
:100C7E00300E00019A25A86F57EC01F02E0E0001E0
:100C8E00A86F57EC01F0300E00019C25A86F57ECB1
:100C9E0001F00D0E0001A86F57EC01F085D6FFD7BD
:100CE20010EE18F0340E006E010E016EAE0EF66EAE
:0E0CF2000C0EF76E000EF86ECCEC01F0120046
:050CAE0066616C6C00A2
:020CB30000003F
:020CB50000003D
:0C0CB700486561727420526174653D0054
:020CC30000002F
:020CC50000002D
:020CC70000002B
:020CC900000029
:020CCB00000027
:020CCD00000025
:020CCF002400FF
:010CD1000022
:060CD20074656D703D0029
:0A0CD80068756D69646974793D0068
:020000040030CA
:0E000000000C1F1EFF8181FF0FC00FE00F409C
:00000001FF
