:02000000B22A22
:10000800FF00030E8301D4000A08D3008A01700898
:10001800A1000C1C2F28A20A0319A30A00302306EA
:10002800031D182816302206031D2A280108B100CE
:10003800B201B10DB20D3110B10DB20D3110A201E6
:10004800A30181010130C1000030C2000C10DB3077
:100058008E000B308F002108F00053088A00540EE0
:080068008300FF0E7F0E09006A
:1000700083120313F801F9011030FC00710DF80D23
:10008000F90D7408F8027508031C750FF9020318BE
:1000900050287408F80775080318750FF90703103E
:0A00A000F00DF10DFC0B3E280800E6
:0E00AA00F201F101F001F801F301003008004D
:1000B8007B15FB1F66280130F300F201F101F00106
:0800C800FA0DF20CFF300800F4
:0800D000FA1FF21300300800D2
:0E00D8008312031351088A00500882000800AA
:1000E600FB14FB1F7D28FF30F300F200F100F00047
:0800F600FA0DF20CFF300800C6
:1000FE00A0017208031D94287108F2007008F10027
:10010E00F001A0157208031D94287108F200F10188
:10011E00A011201672080319A2282008F302031D4D
:10012E00031CA6280310F21BAA28F00DF10DF20DE8
:10013E00F30B9A28A6280130FC005520AD2802307A
:0E014E00FC005C20AD280430FC006820080096
:10015C0083120313EA0105306A020318BC286A08EB
:10016C006907840020308000EA0AB1286A08690710
:10017C0084008001EA036A086907EB000A30F40086
:10018C00F5016708F0006808F10038207808F000E5
:10019C007908F1003030F0076B088400700880009B
:1001AC000A30F400F5016708F0006808F100382007
:1001BC007008E7007108E80000307106031DE8289C
:1001CC0000307006031DEB28ED28EA03C128080057
:1001DC007B14FB1FF928F201FA1FFF30F200F1002B
:0A01EC00F000FA0DF20CFF300800DD
:0E01F600073083120313FD00FD0BFF280800E5
:10020400831603139818082900000229831267082B
:040214009900080045
:1002180083120313FB017308031D7708031963296D
:1002280072087606FA007708F3077E30031C202947
:10023800F302031866292329F302031C69297208AB
:10024800F8007108FC007008FD00F817F617031095
:10025800F201F101F0011830A0007D1C3D2974085D
:10026800F00775080318750FF10776080318760F5D
:10027800F207F20CF10CF00CF80CFC0CFD0C03105E
:10028800A00B3129F21B4D29F80DF00DF10DF20DDF
:10029800F3037B1B701C5F29F81F5F29F00A031901
:1002A800F10A0319F20A031D5F29F20CF10CF00C94
:1002B800F30A03196629FA1FF21300306B2901307B
:1002C80055206B29023073206B2904305C20000014
:0202D80008001C
:1002DA0083120313FB0173080319AA297208FA008F
:1002EA00F2178E30F302F31FAD29F309F30A08302F
:1002FA007302031C9029F300F10D7208F100F20158
:10030A0008307302031C9029F300F10DF101730800
:10031A00031D031098297308031998290310F20C76
:10032A00F10CF30B93297B1B711CA229031CA22934
:10033A00F10A0319F20AF21BB929FA1FBC29F209B8
:10034A00F109F10A0319F20ABC29F201F101BC29E7
:10035A007B14FB1FBF29F201FA1FBF29FF30F200ED
:10036A00F100FA0DF20CBF290130FC00C12900305E
:10037A00FC00C129FF30FC00FC080319C529EE2046
:0A038A007108F0007208F10008008D
:10039400831203137008F8007108F000F101F201F0
:1003A400F301FB01FC019630F300FA017008F1003F
:0C03B4007808F000F801F2017F2008003A
:1003C000831203139F01C0309F0483161F179F17CA
:1003D00083125E08F000F00D7010F00D7010F00D3B
:1003E000701070089F041F14FB201F151F1DFA2991
:1003F0000000F6291F101E08F100F00183161E08E8
:08040000F0040030F1040800D3
:1004080083120313E301E4015E08E5005F08E600D8
:1004180080305F06F00080307002031D152A00301E
:100428005E020318232A0130E3000030E4005E086E
:10043800003CE5005F08031C013EE601E602650892
:10044800E7006608E8006008E900AE200630E10031
:100458000030E2006208003C031D342A6108003CB9
:1004680003184F2A61086007F20001306102F000AA
:100478000030031C013E6202F1007008600784002E
:100488000008F00072088400700880000130E10262
:10049800031CE2032E2A60088400203080006308D1
:1004A800640403196D2AE101E20161086007840010
:1004B8000008203A031D642AE10A0319E20A592AAE
:1004C8000130E102031CE2036108600784002D305B
:0404D8008000080098
:1004DC006C208A110A128000840AD00A0319D10AEE
:0804EC00F003031D6E2A080055
:1004F400831203131A08F100981C822A1812181682
:060504007108F000080080
:0E050A000030831203138C1A0130F000080039
:1005180083120313E0015E0884000008DF005F080F
:10052800003A0319A12A5F08E7000221E00A6008DF
:0C0538005E0784000008DF00932A080022
:100544008316031398169030831298008316871726
:10055400071383128C1EB12A1A08F000AB2A080074
:100564008823831603138116353083129000DB3001
:100574008E000B308F008B170B1783160C14193059
:1005840099001815A222852270080319D42A7A2208
:100594007008D2007008E70002218101DB308E0070
:1005A4000B308F005208733A031D532B0030420660
:1005B400031DDE2A01304106031D532B2430DE00C7
:1005C4008C223108DE003208DF005530E0000422BE
:1005D4005530DE008C220D30E7000221DE01E021DF
:1005E400CA21E330F4003630F5007A30F6007D306D
:1005F400F7000C216D217008DE007108DF00553012
:10060400E00004223330DE008C225530DE008C22E0
:10061400C101C2010D30E70002210130DE00E021FA
:100624000E30F002031CF1030130F102CA219330B1
:10063400F4003A30F5003130F6007F30F7000C2139
:100644006D217008DC007108DD007008DE0071089F
:10065400DF005530E00004224830DE008C225530A3
:10066400DE008C228030F00080305D067002031DB5
:100674003D2B5C08963C031C4B2B80305D06F00040
:1006840080307002031D482B1E305C02031C4B2B70
:100694004E2B4330DE008C22C101C2010D30E70035
:0606A4000221C52A542BBF
:10071000223084002E3083120313F0005A30D000B0
:080720000330D1006E22080035
:0406B40000340034DA
:1006B80048346534613472347434203452346134CB
:0A06C800743465343D3420340034EE
:0406D20000340034BC
:1006D600543465346D347034653472346134743432
:0C06E6007534723465343D342034003427
:0406F200003400349C
:0A06F600663461346C346C34003457
:1007000041346E34673465346C343D342034003405
:02400E004A2F37
:00000001FF
