:0400000039EF04F0E0
:1000080000C015F0E1CF16F0E2CF17F09EA023D084
:10001800304A312A800E3118006E800E010A005CC9
:1000280002E1F40E305C12E32AC04AF02BC04BF018
:100038004A364A904B364A364A904B36306A316ACD
:10004800010E326E000E336E2A6A2B6A9E90DB0E0A
:10005800CE6E0B0ECF6EF2A21FD0000E2F1802E14B
:10006800010E2E1810E181B00ED05F0EE16E000E69
:10007800E26E1D50E126D8B0E22AD6CFE6FF1D2A4F
:100088002E6A2F6AF18C81A006D0010E2E6E000E0A
:100098002F6EF19CD66AF29215C000F016C0E1FFEF
:0600A80017C0E2FF110089
:1000AE000B840BAE62EF00F0010E036E026A016A62
:0A00BE00006A0A360232FF0E12003B
:0800C8000AAE029E000E1200B8
:1000D000086A096A100E0C6E01340836093604509D
:1000E000085E0550D8A0053C095ED8B007D0045082
:1000F00008260550D8B0053C0926D89000360136B0
:060100000C2EEAD71200EC
:0E010600026A016A006A086A036A000E1200AB
:0A0114001D0E0D6E0D2EFED7120019
:10011E000B800BAE9BEF00F0026A0AAEFF0E026E72
:0C012E00016E006E0A360232FF0E120055
:10013A000C6A0E6A0250D8A4B6EF00F001C002F0B1
:10014A0000C001F0006A0E860250D8A4B6EF00F093
:10015A0001C002F0016A0E960E880250D8B4C8EFA8
:10016A0000F00E50035ED8A4D8A0CDEF00F0D890CE
:10017A0002BED2EF00F0003601360236032EBDEF82
:10018A0000F0CDEF00F0010E0C6EB8DFD5EF00F0F5
:10019A00020E0C6E87DFD5EF00F0040E0C6E8FDFB7
:0201AA00120041
:1001AC000B820BAEE0EF00F0036802680168006898
:0801BC000A360232FF0E1200A8
:1001C4000001A46B050EA45D0AE2A451A225E16E10
:1001D400000EA321E26E200EE66EA42BF3D7A451E9
:1001E400A225E16E000EA321E26EE66AA407A451E3
:1001F400A225A56F000EA321A66F0A0E046E000EA1
:10020400056EA0C000F0A1C001F060DF08C000F0DE
:1002140009C001F0300E0026A5C0E1FFA6C0E2FF30
:1002240000C0E6FF0A0E046E000E056EA0C000F0CA
:10023400A1C001F04BDF00C0A0F001C0A1F0000E8E
:10024400011802E1000E001801E102D0A407CFD783
:02025400120096
:0E025600ACB202D00000FCD7A0C0ADFF120079
:1002640000019C6B9D6B96C09EF097C09FF0800E22
:100274009719006E800E005C02E1000E965D0BE2A1
:10028400010E9C6F000E9D6F965100089E6F97C0E3
:100294009FF0000E9F579EC0A0F09FC0A1F098C091
:1002A400A2F099C0A3F08CDF060E9A6F000E9B6F2C
:1002B400000E006E9B51005C02E19A51000819E2A5
:1002C4009A519825E16E9B519921E26E010E9A5D37
:1002D400006E000E9B59016E00509825E96E015086
:1002E4009921EA6EEECFE6FF010E9A5F000E9B5B4A
:1002F400DFD798C0E1FF99C0E2FF200EE66E9C5163
:100304009D111AE09A6B9B6B9A519825E96E9B514B
:100314009921EA6EEE50200A03E19A4B9B2BF4D705
:10032400010E9A5F000E9B5B9A519825E16E9B51DA
:0A0334009921E26E2D0EE66E120014
:10033E000B6A0350D8B4E5EF01F002500A6E028E3C
:10034E008E0E035E03AEE9EF01F0036C080E035C44
:10035E00D8A0C4EF01F0036E013602C001F0026AAC
:10036E00080E035CD8A0C4EF01F0036E0136016ADB
:10037E000350D8A4D890CEEF01F00350D8B4CEEFEE
:10038E0001F0D89002320132032EC8EF01F00BBCFF
:10039E0001A0DBEF01F0D8A0DBEF01F0012AD8B409
:1003AE00022A02BEF8EF01F00AAEFDEF01F0021EC6
:1003BE00011E012AD8B4022AFDEF01F0026A016A79
:1003CE00FDEF01F00B800BAE01EF02F0026A0AAEF8
:1003DE0001EF02F0FF0E026E016E0A36023201EFDD
:1003EE0002F0010E0C6E94DE03EF02F0000E0C6EA6
:1003FE0003EF02F0FF0E0C6E0150006E0250016E04
:02040E001200DA
:100410000050086E0150006E016A026A036A0B6A9E
:100420000C6A960E036E0A6A00C001F008C000F064
:08043000086A026A82DE120074
:10043800819093901A0E0C6EF80E0D6E0D2EFED74D
:100448000C2EFCD7000093808180F19CF28812006A
:10045800C26AC00EC212C18CC18E96C000F00036AE
:10046800009000360090003600900050C212C28002
:100478004DDEC284C2A401D0FDD7C4CF01F0006A0A
:0C048800C3500012000E0112C2901200BE
:100494000900F5CFE6FF0006FBE10106F9E11200D1
:1004A400560E5B6E020E5C6EA00E5D6E000E5E6EEE
:1004B400600E536E080E546E000E556E000E566E8E
:1004C4004E0E4F6E060E506E000E516E000E526EA2
:1004D400FF0E576EFF0E586E000E596E000E5A6EC8
:1004E400AC8A900EAB6E948E949C9EAA03D0AECF31
:0604F40000F0FBD712002E
:1004FA00086A096A000E0762036402EF03F00250F9
:10050A0006180A6E075003267E0ED8A093EF02F053
:10051A00035ED8B006EF03F097EF02F0035ED8A0AF
:10052A000AEF03F0028E068E02C00EF001C00BF035
:10053A0000C00DF000500402F4CF0CF00150050287
:10054A00F4CF00F0F3CF08F00402F3500C26F45075
:10055A000822000E00220D500502F3500C26F4501A
:10056A000822000E002202500402F3500826F4501A
:10057A00002202500502016A000E0122F3500026F1
:10058A00F45001220D500602F3500826F4500022BE
:10059A00026A000E012202220B500602F3500026C4
:1005AA00F4500122000E02220E500602F3500126D8
:1005BA00F450022202BEEAEF02F008360036013693
:1005CA0002360306D8B40AEF03F0FDEF02F0D88032
:1005DA00800E08640030000E002201220222D8A0F8
:1005EA00FDEF02F0023201320032034A06EF03F055
:1005FA000AAE029E000E0CEF03F0010E7FDD0CEF37
:10060A0003F0020ECEDD0CEF03F0040E4BDD1200F8
:10061A000001996B96C0E9FF97C0EAFFEECF98F008
:10062A009851000A0EE098C0A0F010DE0001992B44
:10063A0099519625E96E000E9721EA6EEECF98F051
:04064A00EFD71200D4
:0A064E00000E9EBA010E006E1200AD
:100658000001966B976B986B996B036A046A800E1E
:100668000418006E800E005C02E1100E035C70E25C
:10067800020E0324006E000E0420016E5F0E00249B
:10068800E96E000E0120EA6EEE503C0829E2020EE7
:100698000324006E000E0420016E5F0E0024E96E34
:1006A800000E0120EA6E500EEE5C1AE203500F08AD
:1006B800006E04C001F0000E015600C002F0010EE9
:1006C800006E000E016E025005E000360090013603
:1006D800FF0FFAD70001005096130150971335D039
:1006E800020E0324006E000E0420016E5F0E00242B
:1006F800E96E000E0120EA6EEE50000826E2020EB6
:100708000324006E000E0420016E5F0E0024E96EC3
:10071800000E0120EA6E280EEE5C17E203500F0867
:10072800006E04C001F0000E015600C002F0006A1D
:10073800016A025005E0003600900136FF0FFAD733
:1007480000010050961301509713034A042A87D7D3
:10075800036A046A800E0418006E800E005C02E1D1
:10076800100E035C70E2120E0324006E000E0420CB
:10077800016E5F0E0024E96E000E0120EA6EEE5055
:100788003C0829E2120E0324006E000E0420016EBC
:100798005F0E0024E96E000E0120EA6E500EEE5C3A
:1007A8001AE203500F08006E04C001F0000E015653
:1007B80000C002F0010E006E000E016E025005E04E
:1007C800003600900136FF0FFAD700010050981349
:1007D8000150991335D0120E0324006E000E042028
:1007E800016E5F0E0024E96E000E0120EA6EEE50E5
:1007F800000826E2120E0324006E000E0420016E8B
:100808005F0E0024E96E000E0120EA6E280EEE5CF1
:1008180017E203500F08006E04C001F0000E0156E5
:1008280000C002F0006A016A025005E0003600903C
:100838000136FF0FFAD700010050981301509913A1
:10084800034A042A87D798C087F099C088F096C0D1
:0808580089F097C08AF012003C
:10086000AECF01F0ABA202D0AB98AB8801C000F0D4
:02087000120074
:1008720054EC05F0C00EF26EC10ED56E9380F19C61
:10088200670EAF6EAC840DDE950ECD6E9D809F809F
:10089200DB0ECE6E0B0ECF6E0001966BDCDD00C060
:1008A20028F001C029F0800E020A026E800E0118A3
:1008B200025C02E1005026080CE2000E271802E159
:1008C200000E261806E12A4A2B2A010E266E000E79
:1008D200276E800E2918006E800E010A005C02E16C
:1008E200C20E285C08E2000E271802E1010E26184B
:1008F20002E1266A276A010E0001966FACDD0E0E38
:10090200005E010E015A83DD930E046E3A0E056EEF
:10091200310E066E7F0E076EEFDD10DD00C04DF06A
:1009220001C04EF000C096F001C097F08B0E00019E
:10093200986F000E996F95DC800E006E800E4E1837
:10094200005C02E14D5096080AE3800E4E18006EDC
:10095200800E005C02E11E0E4D5C01E310D0000E21
:100962002D1802E1000E2C180AE10001180E966FF4
:10097200000E976F51DE010E2C6E000E2D6E800E52
:100982004E18006E800E005C02E16E0E4D5C0BE2B2
:10099200800E006E800E4E18005C02E14D5046083B
:1009A20002E22C6A2D6A52DE005207E058DF00C0D4
:1009B2004CF00050310A01E13EDD800E006E800EE7
:1009C2002518005C02E124501D5C31E3F2981D6A97
:1009D20042DE1E0E0001966F000E976F1DDE87C06D
:1009E20096F088C097F08F0E986F000E996F39DCE1
:1009F2008F0E966F000E976F0FDE0D0EA06F2ADC22
:100A0200340E0001966F000E976F06DE89C096F0D5
:100A12008AC097F08F0E986F000E996F22DC8F0EAE
:100A2200966F000E976FF8DD0D0EA06F13DC000EAF
:100A3200331802E1010E32181AE13E0E0001966FE0
:100A4200000E976FE9DD4AC096F04BC097F08F0E0B
:100A5200986F000E996F05DC8F0E966F000E976FE0
:100A6200DBDD0D0EA06F2BEC01F0326A336A14D776
:020A7200FFD7AC
:100AA80010EE18F0340E006E010E016E740EF66E24
:0E0AB8000A0EF76E000EF86E4AEC02F0120005
:050A740066616C6C00DE
:010A7900007C
:060A7A0074656D703D0083
:020A8000240050
:020A8200000072
:020A8400000070
:020A860000006E
:020A880000006C
:020A8A0000006A
:020A8C00000068
:020A8E00000066
:0A0A900068756D69646974793D00B2
:0C0A9A00486561727420526174653D0073
:020AA60000004E
:020000040030CA
:0D000100220F0EFF0181FF0FC00FE00F4026
:00000001FF
