:04000000C2EF02F059
:1000080000C015F0E1CF16F0E2CF17F0F2A21FD032
:10001800000E281802E1010E271810E181B00ED059
:10002800450EE16E000EE26E2050E126D8B0E22ABD
:10003800D6CFE6FF202A276A286AF18C81A006D04D
:10004800010E276E000E286EF19CD66AF29215C03A
:0C00580000F016C0E1FF17C0E2FF11002D
:10006400086A096A100E0C6E013408360936045009
:10007400085E0550D8A0053C095ED8B007D00450EE
:1000840008260550D8B0053C0926D890003601361C
:060094000C2EEAD7120059
:10009A00086A080E0C6E003408360450085ED8B0A0
:0E00AA0002D00826D89000360C2EF5D7120092
:0E00B800ACB202D00000FCD796C0ADFF120023
:1000C60000019A6B050E9A5D0AE29A519825E16E37
:1000D600000E9921E26E200EE66E9A2BF3D79A5106
:1000E6009825E16E000E9921E26EE66A9A079A510A
:1000F60098259B6F000E99219C6F0A0E046E000EC8
:10010600056E96C000F097C001F0A9DF08C000F0A8
:1001160009C001F0300E00269BC0E1FF9CC0E2FF43
:1001260000C0E6FF0A0E046E000E056E96C000F0D3
:1001360097C001F094DF00C096F001C097F0000E62
:10014600011802E1000E001801E102D09A07CFD78C
:02015600120095
:10015800819093901A0E0C6EF80E0D6E0D2EFED730
:100168000C2EFCD7000093808180F19CF28812004D
:100178000001926B936B8CC094F08DC095F0800E4B
:100188008D19006E800E005C02E1000E8C5D0BE2A2
:10019800010E926F000E936F8C510008946F8DC002
:1001A80095F0000E955794C096F095C097F08EC0C4
:1001B80098F08FC099F083DF060E906F000E916F54
:1001C800000E006E9151005C02E19051000819E2A6
:1001D80090518E25E16E91518F21E26E010E905D56
:1001E800006E000E9159016E00508E25E96E015087
:1001F8008F21EA6EEECFE6FF010E905F000E915B55
:10020800DFD78EC0E1FF8FC0E2FF200EE66E92516D
:1002180093111AE0906B916B90518E25E96E915174
:100228008F21EA6EEE50200A03E1904B912BF4D710
:10023800010E905F000E915B90518E25E16E9151F9
:0A0248008F21E26E2D0EE66E12000B
:1002520000018F6B030E8F5D0AE28F518D25E16ED7
:10026200000E8E21E26E200EE66E8F2BF3D78F5199
:100272008D25E16E000E8E21E26EE66A8F078F51A8
:100282008D25906F000E8E21916F0A0E046E8CC028
:1002920000F002DF08C000F0300E002690C0E1FF3F
:1002A20091C0E2FF00C0E6FF0A0E046E8CC000F0AF
:1002B200F3DE00C08CF00050000A01E102D08F078B
:0402C200DED7120071
:0A02C600000E9EBA010E006E120039
:1002D0000900F5CFE6FF0006FBE10106F9E1120097
:1002E000B80E7B6E000E7C6E960E7D6E000E7E6EDE
:1002F000360E736E030E746E000E756E000E766E03
:10030000C60E6F6E020E706E000E716E000E726E73
:10031000FF0E776EFF0E786E000E796E000E7A6E0D
:10032000AC8A900EAB6E948E949C9EAA03D0AECFF6
:0603300000F0FBD71200F3
:10033600AECF01F0ABA202D0AB98AB8801C000F003
:020346001200A3
:1003480000018C6B8D6B8E6B8F6B036A046A800E59
:100358000418006E800E005C02E1100E035C70E26F
:10036800020E0324006E000E0420016E450E0024C8
:10037800E96E000E0120EA6EEE503C0829E2020EFA
:100388000324006E000E0420016E450E0024E96E61
:10039800000E0120EA6E500EEE5C1AE203500F08C0
:1003A800006E04C001F0000E015600C002F0010EFC
:1003B800006E000E016E025005E000360090013616
:1003C800FF0FFAD7000100508C1301508D1335D060
:1003D800020E0324006E000E0420016E450E002458
:1003E800E96E000E0120EA6EEE50000826E2020EC9
:1003F8000324006E000E0420016E450E0024E96EF1
:10040800000E0120EA6E280EEE5C17E203500F087A
:10041800006E04C001F0000E015600C002F0006A30
:10042800016A025005E0003600900136FF0FFAD746
:10043800000100508C1301508D13034A042A87D7FA
:10044800036A046A800E0418006E800E005C02E1E4
:10045800100E035C70E2120E0324006E000E0420DE
:10046800016E450E0024E96E000E0120EA6EEE5082
:100478003C0829E2120E0324006E000E0420016ECF
:10048800450E0024E96E000E0120EA6E500EEE5C67
:100498001AE203500F08006E04C001F0000E015666
:1004A80000C002F0010E006E000E016E025005E061
:1004B800003600900136FF0FFAD7000100508E1366
:1004C80001508F1335D0120E0324006E000E042045
:1004D800016E450E0024E96E000E0120EA6EEE5012
:1004E800000826E2120E0324006E000E0420016E9E
:1004F800450E0024E96E000E0120EA6E280EEE5C1F
:1005080017E203500F08006E04C001F0000E0156F8
:1005180000C002F0006A016A025005E0003600904F
:100528000136FF0FFAD7000100508E1301508F13C8
:10053800034A042A87D78EC043F08FC044F08CC08A
:080548006DF08DC06EF0120091
:1005500000018F6B8CC0E9FF8DC0EAFFEECF8EF0FB
:100560008E51000A0EE08EC096F0A6DD00018F2BA2
:100570008F518C25E96E000E8D21EA6EEECF8EF044
:04058000EFD712009F
:1005840073EC03F0C00EF26EC10ED56E9380F19C35
:10059400670EAF6EAC84A2DE210E00018C6F000EDC
:1005A4008D6FD4DF0B0E0B6E260E0C6E5D0E0D6E72
:1005B4000D2EFED70C2EFCD70B2EFAD70000000010
:1005C400180E8C6F000E8D6FC1DF7BDE005207E0CA
:1005D400B0DE00C042F00050310A01E1BBDD800E04
:1005E400006E800E1F18005C02E11E50205C62E366
:1005F400F29800018A6B8B6B800E8B19006E800E53
:100604001F18005C02E11E508A5D24E2450E8A2513
:10061400E96E000E8B21EA6EEECF8CF07F0E8D6FAB
:10062400000E8E6F14DE7F0E8C6F000E8D6F8EDFCA
:100634000D0E966F3FDD000E00018B1902E1120EC4
:100644008A1905E12F0E8C6F000E8D6F7FDF8A4BA8
:100654008B2BD2D7206A76DE290E00018C6F000E18
:100664008D6F74DF43C08CF044C08DF0830E8E6FA9
:10067400000E8F6F7FDD830E8C6F000E8D6F66DF33
:100684000D0E966F17DD380E00018C6F000E8D6F06
:100694005DDF6DC08CF06EC08DF0830E8E6F000E2A
:1006A4008F6F68DD830E8C6F000E8D6F4FDF0D0E24
:0806B400966F00DD8AD7FFD725
:1006E60010EE18F02A0E006E010E016EBC0EF66EAC
:0E06F600060EF76E000EF86E68EC01F01200B2
:0606BC0072656164790023
:0206C200240012
:0106C4000035
:0606C5007265616479001A
:0206CB0000002D
:0606CD0074656D703D0034
:0906D30068756D696469747900B1
:0A06DC0068756D69646974793D006A
:020000040030CA
:0D000100220F0EFF0181FF0FC00FE00F4026
:00000001FF
