:0400000071EF02F0AA
:1000080000C015F0E1CF16F0E2CF17F0F2A21FD032
:10001800000E1C1802E1010E1B1810E181B00ED071
:10002800390EE16E000EE26E1850E126D8B0E22AD1
:10003800D6CFE6FF182A1B6A1C6AF18C81A006D06D
:10004800010E1B6E000E1C6EF19CD66AF29215C052
:0C00580000F016C0E1FF17C0E2FF11002D
:10006400086A096A100E0C6E013408360936045009
:10007400085E0550D8A0053C095ED8B007D00450EE
:1000840008260550D8B0053C0926D890003601361C
:060094000C2EEAD7120059
:0E009A00ACB202D00000FCD77BC0ADFF12005C
:1000A8007F6A050E7F5C0AE27F507D24E16E000EB8
:1000B8007E20E26E200EE66E7F2AF3D77F507D24E5
:1000C800E16E000E7E20E26EE66A7F067F507D2498
:1000D8000001806F000E7E20816F0A0E046E000EF4
:1000E800056E7BC000F07CC001F0B8DF08C000F0EE
:1000F80009C001F0300E002680C0E1FF81C0E2FF98
:1001080000C0E6FF0A0E046E000E056E7BC000F00C
:100118007CC001F0A3DF00C07BF001C07CF0000EC2
:10012800011802E1000E001801E102D07F06CED7C7
:020138001200B3
:10013A00716A726A736A746A036A046A800E0418BE
:10014A00006E800E005C02E1100E035C6EE2020E8D
:10015A000324006E000E0420016E390E0024E96E9D
:10016A00000E0120EA6EEE503C0828E2020E03243B
:10017A00006E000E0420016E390E0024E96E000E96
:10018A000120EA6E500EEE5C19E203500F08006E71
:10019A0004C001F0000E015600C002F0010E006E0C
:1001AA00000E016E025005E0003600900136FF0F86
:1001BA00FAD7005071120150721234D0020E032481
:1001CA00006E000E0420016E390E0024E96E000E46
:1001DA000120EA6EEE50000825E2020E0324006EAA
:1001EA00000E0420016E390E0024E96E000E012073
:1001FA00EA6E280EEE5C16E203500F08006E04C089
:10020A0001F0000E015600C002F0006A016A0250B5
:10021A0005E0003600900136FF0FFAD70050711240
:10022A0001507212034A042A89D7036A046A800EAB
:10023A000418006E800E005C02E1100E035C6EE290
:10024A00120E0324006E000E0420016E390E0024E3
:10025A00E96E000E0120EA6EEE503C0828E2120E0A
:10026A000324006E000E0420016E390E0024E96E8C
:10027A00000E0120EA6E500EEE5C19E203500F08E0
:10028A00006E04C001F0000E015600C002F0010E1B
:10029A00006E000E016E025005E000360090013635
:1002AA00FF0FFAD7005073120150741234D0120E95
:1002BA000324006E000E0420016E390E0024E96E3C
:1002CA00000E0120EA6EEE50000825E2120E032409
:1002DA00006E000E0420016E390E0024E96E000E35
:1002EA000120EA6E280EEE5C16E203500F08006E3B
:1002FA0004C001F0000E015600C002F0006A016A53
:10030A00025005E0003600900136FF0FFAD7005080
:10031A00731201507412034A042A89D773C068F011
:0E032A0074C069F071C065F072C066F0120018
:10033800746A71C0E9FF72C0EAFFEECF73F07350C0
:10034800000A0DE073C07BF0A4DE742A7450712497
:10035800E96E000E7220EA6EEECF73F0F0D712004D
:10036800776A786A71C079F072C07AF0800E721874
:10037800006E800E005C02E1000E715C0BE2010E63
:10038800776E000E786E71500008796E72C07AF040
:10039800000E7A5679C07BF07AC07CF073C07DF08D
:1003A80074C07EF07DDE060E756E000E766E000E51
:1003B800006E7650005C02E17550000819E2755035
:1003C8007324E16E76507420E26E010E755C006E47
:1003D800000E7658016E00507324E96E01507420A7
:1003E800EA6EEECFE6FF010E755E000E765ADFD795
:1003F80073C0E1FF74C0E2FF200EE66E77507810FC
:100408001AE0756A766A75507324E96E765074201E
:10041800EA6EEE50200A03E1754A762AF4D7010EF7
:10042800755E000E765A75507324E16E765074200E
:08043800E26E2D0EE66E1200CB
:100440009A0E2D6E000E2E6E7B0E2F6E000E306EED
:10045000D00E316E040E326E000E336E000E346E0E
:10046000A60E356E040E366E000E376E000E386E18
:10047000FF0E616EFF0E626E000E636E000E646E04
:10048000AC8A900EAB6E948E949C9EAA03D0AECF95
:0604900000F0FBD7120092
:100496000900F5CFE6FF0006FBE10106F9E11200CF
:0A04A600000E9EBA010E006E120057
:1004B000819093901A0E0C6EF80E0D6E0D2EFED7D5
:1004C0000C2EFCD7000093808180F19CF2881200F2
:1004D000AECF01F0ABA202D0AB98AB8801C000F068
:0204E000120008
:1004E200CCEC02F0C00EF26EC10ED56E9380F19C80
:1004F200670EAF6EAC84A3DFD5DF005207E0E7DF03
:1005020000C067F00050310A01E1D1DF800E006EB9
:10051200800E1A18005C02E11950185C2FE3F29861
:10052200186A0ADE1D0E716E000E726E04DF68C05C
:1005320071F069C072F06A0E736E000E746E13DF92
:100542006A0E716E000E726EF6DE0D0E7B6EA4DD0B
:10055200230E716E000E726EEEDE65C071F066C023
:1005620072F06A0E736E000E746EFDDE6A0E716EAC
:10057200000E726EE0DE0D0E7B6E8EDDBDD7FFD7F4
:1005980010EE18F0150E006E010E016E820EF66E4A
:0E05A800050EF76E000EF86E4BEC02F012001E
:010582000078
:02058300240052
:02058500000074
:0605870074656D703D007B
:0A058D0068756D69646974793D00BA
:020000040030CA
:0D000100220F0EFF0181FF0FC00FE00F4026
:00000001FF
